{
  "_format": "hh-sol-artifact-1",
  "contractName": "ClaimContract",
  "sourceName": "contracts/ClaimContract.sol",
  "abi": [
    {
      "inputs": [
        {
          "internalType": "address",
          "name": "_policyContract",
          "type": "address"
        }
      ],
      "stateMutability": "nonpayable",
      "type": "constructor"
    },
    {
      "inputs": [
        {
          "internalType": "address",
          "name": "owner",
          "type": "address"
        }
      ],
      "name": "OwnableInvalidOwner",
      "type": "error"
    },
    {
      "inputs": [
        {
          "internalType": "address",
          "name": "account",
          "type": "address"
        }
      ],
      "name": "OwnableUnauthorizedAccount",
      "type": "error"
    },
    {
      "inputs": [],
      "name": "ReentrancyGuardReentrantCall",
      "type": "error"
    },
    {
      "anonymous": false,
      "inputs": [
        {
          "indexed": true,
          "internalType": "uint256",
          "name": "claimId",
          "type": "uint256"
        },
        {
          "indexed": true,
          "internalType": "address",
          "name": "providerWallet",
          "type": "address"
        },
        {
          "indexed": false,
          "internalType": "uint256",
          "name": "amount",
          "type": "uint256"
        }
      ],
      "name": "ClaimPaid",
      "type": "event"
    },
    {
      "anonymous": false,
      "inputs": [
        {
          "indexed": true,
          "internalType": "uint256",
          "name": "claimId",
          "type": "uint256"
        },
        {
          "indexed": false,
          "internalType": "string",
          "name": "reason",
          "type": "string"
        }
      ],
      "name": "ClaimRejected",
      "type": "event"
    },
    {
      "anonymous": false,
      "inputs": [
        {
          "indexed": true,
          "internalType": "uint256",
          "name": "claimId",
          "type": "uint256"
        },
        {
          "indexed": false,
          "internalType": "enum ClaimContract.ClaimStatus",
          "name": "oldStatus",
          "type": "uint8"
        },
        {
          "indexed": false,
          "internalType": "enum ClaimContract.ClaimStatus",
          "name": "newStatus",
          "type": "uint8"
        }
      ],
      "name": "ClaimStatusChanged",
      "type": "event"
    },
    {
      "anonymous": false,
      "inputs": [
        {
          "indexed": true,
          "internalType": "uint256",
          "name": "claimId",
          "type": "uint256"
        },
        {
          "indexed": false,
          "internalType": "enum ClaimContract.ClaimStatus",
          "name": "newStatus",
          "type": "uint8"
        }
      ],
      "name": "ClaimStatusUpdated",
      "type": "event"
    },
    {
      "anonymous": false,
      "inputs": [
        {
          "indexed": true,
          "internalType": "uint256",
          "name": "claimId",
          "type": "uint256"
        },
        {
          "indexed": true,
          "internalType": "address",
          "name": "provider",
          "type": "address"
        },
        {
          "indexed": true,
          "internalType": "address",
          "name": "patient",
          "type": "address"
        },
        {
          "indexed": false,
          "internalType": "uint256",
          "name": "amount",
          "type": "uint256"
        }
      ],
      "name": "ClaimSubmitted",
      "type": "event"
    },
    {
      "anonymous": false,
      "inputs": [
        {
          "indexed": true,
          "internalType": "address",
          "name": "previousOwner",
          "type": "address"
        },
        {
          "indexed": true,
          "internalType": "address",
          "name": "newOwner",
          "type": "address"
        }
      ],
      "name": "OwnershipTransferred",
      "type": "event"
    },
    {
      "inputs": [
        {
          "internalType": "uint256",
          "name": "claimId",
          "type": "uint256"
        },
        {
          "internalType": "uint256",
          "name": "payoutAmount",
          "type": "uint256"
        }
      ],
      "name": "approveAndPayClaim",
      "outputs": [],
      "stateMutability": "payable",
      "type": "function"
    },
    {
      "inputs": [
        {
          "internalType": "uint256",
          "name": "",
          "type": "uint256"
        }
      ],
      "name": "claims",
      "outputs": [
        {
          "internalType": "uint256",
          "name": "id",
          "type": "uint256"
        },
        {
          "internalType": "uint256",
          "name": "policyId",
          "type": "uint256"
        },
        {
          "internalType": "address",
          "name": "patient",
          "type": "address"
        },
        {
          "internalType": "address",
          "name": "provider",
          "type": "address"
        },
        {
          "internalType": "address",
          "name": "providerWallet",
          "type": "address"
        },
        {
          "internalType": "uint256",
          "name": "amount",
          "type": "uint256"
        },
        {
          "internalType": "string",
          "name": "medicalReportCid",
          "type": "string"
        },
        {
          "internalType": "string",
          "name": "patientDid",
          "type": "string"
        },
        {
          "internalType": "string",
          "name": "providerVcCid",
          "type": "string"
        },
        {
          "internalType": "enum ClaimContract.ClaimStatus",
          "name": "status",
          "type": "uint8"
        },
        {
          "internalType": "uint256",
          "name": "payoutAmount",
          "type": "uint256"
        },
        {
          "internalType": "string",
          "name": "rejectionReason",
          "type": "string"
        }
      ],
      "stateMutability": "view",
      "type": "function"
    },
    {
      "inputs": [
        {
          "internalType": "uint256",
          "name": "claimId",
          "type": "uint256"
        }
      ],
      "name": "getClaim",
      "outputs": [
        {
          "components": [
            {
              "internalType": "uint256",
              "name": "id",
              "type": "uint256"
            },
            {
              "internalType": "uint256",
              "name": "policyId",
              "type": "uint256"
            },
            {
              "internalType": "address",
              "name": "patient",
              "type": "address"
            },
            {
              "internalType": "address",
              "name": "provider",
              "type": "address"
            },
            {
              "internalType": "address",
              "name": "providerWallet",
              "type": "address"
            },
            {
              "internalType": "uint256",
              "name": "amount",
              "type": "uint256"
            },
            {
              "internalType": "string",
              "name": "medicalReportCid",
              "type": "string"
            },
            {
              "internalType": "string",
              "name": "patientDid",
              "type": "string"
            },
            {
              "internalType": "string",
              "name": "providerVcCid",
              "type": "string"
            },
            {
              "internalType": "enum ClaimContract.ClaimStatus",
              "name": "status",
              "type": "uint8"
            },
            {
              "internalType": "uint256",
              "name": "payoutAmount",
              "type": "uint256"
            },
            {
              "internalType": "string",
              "name": "rejectionReason",
              "type": "string"
            }
          ],
          "internalType": "struct ClaimContract.Claim",
          "name": "",
          "type": "tuple"
        }
      ],
      "stateMutability": "view",
      "type": "function"
    },
    {
      "inputs": [],
      "name": "getClaimCount",
      "outputs": [
        {
          "internalType": "uint256",
          "name": "",
          "type": "uint256"
        }
      ],
      "stateMutability": "view",
      "type": "function"
    },
    {
      "inputs": [],
      "name": "insurerAddress",
      "outputs": [
        {
          "internalType": "address",
          "name": "",
          "type": "address"
        }
      ],
      "stateMutability": "view",
      "type": "function"
    },
    {
      "inputs": [],
      "name": "owner",
      "outputs": [
        {
          "internalType": "address",
          "name": "",
          "type": "address"
        }
      ],
      "stateMutability": "view",
      "type": "function"
    },
    {
      "inputs": [],
      "name": "policyContract",
      "outputs": [
        {
          "internalType": "contract PolicyContract",
          "name": "",
          "type": "address"
        }
      ],
      "stateMutability": "view",
      "type": "function"
    },
    {
      "inputs": [
        {
          "internalType": "uint256",
          "name": "claimId",
          "type": "uint256"
        },
        {
          "internalType": "string",
          "name": "reason",
          "type": "string"
        }
      ],
      "name": "rejectClaim",
      "outputs": [],
      "stateMutability": "nonpayable",
      "type": "function"
    },
    {
      "inputs": [],
      "name": "renounceOwnership",
      "outputs": [],
      "stateMutability": "nonpayable",
      "type": "function"
    },
    {
      "inputs": [
        {
          "internalType": "uint256",
          "name": "claimId",
          "type": "uint256"
        }
      ],
      "name": "setClaimUnderReview",
      "outputs": [],
      "stateMutability": "nonpayable",
      "type": "function"
    },
    {
      "inputs": [
        {
          "internalType": "address",
          "name": "_insurer",
          "type": "address"
        }
      ],
      "name": "setInsurerAddress",
      "outputs": [],
      "stateMutability": "nonpayable",
      "type": "function"
    },
    {
      "inputs": [
        {
          "internalType": "uint256",
          "name": "policyId",
          "type": "uint256"
        },
        {
          "internalType": "address",
          "name": "patient",
          "type": "address"
        },
        {
          "internalType": "address",
          "name": "providerWallet",
          "type": "address"
        },
        {
          "internalType": "uint256",
          "name": "amount",
          "type": "uint256"
        },
        {
          "internalType": "string",
          "name": "medicalReportCid",
          "type": "string"
        },
        {
          "internalType": "string",
          "name": "patientDid",
          "type": "string"
        },
        {
          "internalType": "string",
          "name": "providerVcCid",
          "type": "string"
        }
      ],
      "name": "submitClaim",
      "outputs": [
        {
          "internalType": "uint256",
          "name": "",
          "type": "uint256"
        }
      ],
      "stateMutability": "nonpayable",
      "type": "function"
    },
    {
      "inputs": [
        {
          "internalType": "address",
          "name": "newOwner",
          "type": "address"
        }
      ],
      "name": "transferOwnership",
      "outputs": [],
      "stateMutability": "nonpayable",
      "type": "function"
    },
    {
      "inputs": [
        {
          "internalType": "uint256",
          "name": "claimId",
          "type": "uint256"
        },
        {
          "internalType": "enum ClaimContract.ClaimStatus",
          "name": "newStatus",
          "type": "uint8"
        }
      ],
      "name": "updateClaimStatus",
      "outputs": [],
      "stateMutability": "nonpayable",
      "type": "function"
    },
    {
      "inputs": [
        {
          "internalType": "string",
          "name": "",
          "type": "string"
        }
      ],
      "name": "usedMedicalReports",
      "outputs": [
        {
          "internalType": "bool",
          "name": "",
          "type": "bool"
        }
      ],
      "stateMutability": "view",
      "type": "function"
    }
  ],
  "bytecode": "0x60806040523480156200001157600080fd5b50604051620023b6380380620023b683398101604081905262000034916200014b565b600160005533806200006157604051631e4fbdf760e01b8152600060048201526024015b60405180910390fd5b6200006c81620000f9565b506001600160a01b038116620000c55760405162461bcd60e51b815260206004820152601f60248201527f496e76616c696420706f6c69637920636f6e7472616374206164647265737300604482015260640162000058565b600580546001600160a01b039092166001600160a01b0319928316179055600680549091163317905560006002556200017d565b600180546001600160a01b038381166001600160a01b0319831681179093556040519116919082907f8be0079c531659141344cd1fd0a4f28419497f9722a3daafe3b4186f6b6457e090600090a35050565b6000602082840312156200015e57600080fd5b81516001600160a01b03811681146200017657600080fd5b9392505050565b612229806200018d6000396000f3fe6080604052600436106100e85760003560e01c80638da5cb5b1161008a578063ab1f5b7c11610059578063ab1f5b7c146102a6578063ba4611d9146102c6578063f2fde38b146102e5578063fd3027071461030557600080fd5b80638da5cb5b14610210578063a0535a451461022e578063a7c0900e1461024e578063a888c2cd1461026e57600080fd5b8063619b4b16116100c6578063619b4b1614610165578063715018a614610178578063792f2cff1461018d5780637ff06357146101d857600080fd5b80633577a5ad146100ed57806340fdb5681461010f5780635aef24471461012f575b600080fd5b3480156100f957600080fd5b5061010d610108366004611a33565b610325565b005b34801561011b57600080fd5b5061010d61012a366004611a7a565b6104da565b34801561013b57600080fd5b5061014f61014a366004611a7a565b6105f6565b60405161015c9190611b1b565b60405180910390f35b61010d610173366004611c24565b610920565b34801561018457600080fd5b5061010d610bd5565b34801561019957600080fd5b506101c86101a8366004611c46565b805160208183018101805160048252928201919093012091525460ff1681565b604051901515815260200161015c565b3480156101e457600080fd5b506005546101f8906001600160a01b031681565b6040516001600160a01b03909116815260200161015c565b34801561021c57600080fd5b506001546001600160a01b03166101f8565b34801561023a57600080fd5b5061010d610249366004611c98565b610be9565b34801561025a57600080fd5b506006546101f8906001600160a01b031681565b34801561027a57600080fd5b5061028e610289366004611a7a565b610c69565b60405161015c9c9b9a99989796959493929190611cbc565b3480156102b257600080fd5b5061010d6102c1366004611d75565b610eff565b3480156102d257600080fd5b506002545b60405190815260200161015c565b3480156102f157600080fd5b5061010d610300366004611c98565b61106d565b34801561031157600080fd5b506102d7610320366004611da5565b6110ab565b6006546001600160a01b031633146103585760405162461bcd60e51b815260040161034f90611e66565b60405180910390fd5b60008281526003602052604081205490036103855760405162461bcd60e51b815260040161034f90611e95565b60008281526003602052604081206009015460ff1660048111156103ab576103ab611ae3565b14806103dc5750600160008381526003602052604090206009015460ff1660048111156103da576103da611ae3565b145b6104365760405162461bcd60e51b815260206004820152602560248201527f43616e6e6f742072656a65637420636c61696d20696e2063757272656e742073604482015264746174757360d81b606482015260840161034f565b600082815260036020819052604090912060098101805460ff1916909217909155600b016104648282611f4c565b50817f43cc3d080e025c67c26d62b18bd442511dc9c76c8aa3f48cc0e8f456173e61f182604051610495919061200c565b60405180910390a2817f2e7de2377c1e6f85a268dbe00519c60d65c9e38570a118be0eb07feb07fc89be60036040516104ce919061201f565b60405180910390a25050565b6006546001600160a01b031633146105045760405162461bcd60e51b815260040161034f90611e66565b60008181526003602052604081205490036105315760405162461bcd60e51b815260040161034f90611e95565b60008181526003602052604081206009015460ff16600481111561055757610557611ae3565b146105985760405162461bcd60e51b8152602060048201526011602482015270436c61696d206e6f742070656e64696e6760781b604482015260640161034f565b600081815260036020526040902060090180546001919060ff191682800217905550807f2e7de2377c1e6f85a268dbe00519c60d65c9e38570a118be0eb07feb07fc89be60016040516105eb919061201f565b60405180910390a250565b6105fe6118b7565b600082815260036020526040812054900361062b5760405162461bcd60e51b815260040161034f90611e95565b6000828152600360208181526040928390208351610180810185528154815260018201549281019290925260028101546001600160a01b0390811694830194909452918201548316606082015260048201549092166080830152600581015460a083015260068101805460c0840191906106a490611ec3565b80601f01602080910402602001604051908101604052809291908181526020018280546106d090611ec3565b801561071d5780601f106106f25761010080835404028352916020019161071d565b820191906000526020600020905b81548152906001019060200180831161070057829003601f168201915b5050505050815260200160078201805461073690611ec3565b80601f016020809104026020016040519081016040528092919081815260200182805461076290611ec3565b80156107af5780601f10610784576101008083540402835291602001916107af565b820191906000526020600020905b81548152906001019060200180831161079257829003601f168201915b505050505081526020016008820180546107c890611ec3565b80601f01602080910402602001604051908101604052809291908181526020018280546107f490611ec3565b80156108415780601f1061081657610100808354040283529160200191610841565b820191906000526020600020905b81548152906001019060200180831161082457829003601f168201915b5050509183525050600982015460209091019060ff16600481111561086857610868611ae3565b600481111561087957610879611ae3565b8152602001600a8201548152602001600b8201805461089790611ec3565b80601f01602080910402602001604051908101604052809291908181526020018280546108c390611ec3565b80156109105780601f106108e557610100808354040283529160200191610910565b820191906000526020600020905b8154815290600101906020018083116108f357829003601f168201915b5050505050815250509050919050565b6006546001600160a01b0316331461094a5760405162461bcd60e51b815260040161034f90611e66565b610952611770565b600082815260036020526040812054900361097f5760405162461bcd60e51b815260040161034f90611e95565b600160008381526003602052604090206009015460ff1660048111156109a7576109a7611ae3565b146109ed5760405162461bcd60e51b8152602060048201526016602482015275436c61696d206e6f7420756e6465722072657669657760501b604482015260640161034f565b803414610a3c5760405162461bcd60e51b815260206004820152601860248201527f496e636f7272656374207061796d656e7420616d6f756e740000000000000000604482015260640161034f565b60008111610a8c5760405162461bcd60e51b815260206004820152601760248201527f5061796f7574206d75737420626520706f736974697665000000000000000000604482015260640161034f565b60008281526003602052604080822060098101805460ff19166004908117909155600a8201859055015490516001600160a01b039091169190829034908381818185875af1925050503d8060008114610b01576040519150601f19603f3d011682016040523d82523d6000602084013e610b06565b606091505b5050905080610b485760405162461bcd60e51b815260206004820152600e60248201526d14185e5b595b9d0819985a5b195960921b604482015260640161034f565b816001600160a01b0316847faf3c8fdd75d667f71d36d7840b8ef9086c516c9b047ad6a83a5a66151342123a85604051610b8491815260200190565b60405180910390a3837f2e7de2377c1e6f85a268dbe00519c60d65c9e38570a118be0eb07feb07fc89be6004604051610bbd919061201f565b60405180910390a25050610bd16001600055565b5050565b610bdd61179a565b610be760006117c7565b565b610bf161179a565b6001600160a01b038116610c475760405162461bcd60e51b815260206004820152601760248201527f496e76616c696420696e73757265722061646472657373000000000000000000604482015260640161034f565b600680546001600160a01b0319166001600160a01b0392909216919091179055565b60036020819052600091825260409091208054600182015460028301549383015460048401546005850154600686018054959794966001600160a01b03958616969486169590931693919291610cbe90611ec3565b80601f0160208091040260200160405190810160405280929190818152602001828054610cea90611ec3565b8015610d375780601f10610d0c57610100808354040283529160200191610d37565b820191906000526020600020905b815481529060010190602001808311610d1a57829003601f168201915b505050505090806007018054610d4c90611ec3565b80601f0160208091040260200160405190810160405280929190818152602001828054610d7890611ec3565b8015610dc55780601f10610d9a57610100808354040283529160200191610dc5565b820191906000526020600020905b815481529060010190602001808311610da857829003601f168201915b505050505090806008018054610dda90611ec3565b80601f0160208091040260200160405190810160405280929190818152602001828054610e0690611ec3565b8015610e535780601f10610e2857610100808354040283529160200191610e53565b820191906000526020600020905b815481529060010190602001808311610e3657829003601f168201915b505050506009830154600a840154600b85018054949560ff9093169491935090610e7c90611ec3565b80601f0160208091040260200160405190810160405280929190818152602001828054610ea890611ec3565b8015610ef55780601f10610eca57610100808354040283529160200191610ef5565b820191906000526020600020905b815481529060010190602001808311610ed857829003601f168201915b505050505090508c565b6000828152600360205260408120549003610f2c5760405162461bcd60e51b815260040161034f90611e95565b60008281526003602052604090206009015460ff16816004811115610f5357610f53611ae3565b816004811115610f6557610f65611ae3565b03610fa55760405162461bcd60e51b815260206004820152601060248201526f14dd185d1d5cc81d5b98da185b99d95960821b604482015260640161034f565b610faf8183611819565b610ffb5760405162461bcd60e51b815260206004820152601960248201527f496e76616c696420737461747573207472616e736974696f6e00000000000000604482015260640161034f565b6000838152600360205260409020600901805483919060ff1916600183600481111561102957611029611ae3565b0217905550827f2d8b91cd39b91d452a6c29034de86e9ac2ff4936f8fe3a2aa319a662f4206ece828460405161106092919061202d565b60405180910390a2505050565b61107561179a565b6001600160a01b03811661109f57604051631e4fbdf760e01b81526000600482015260240161034f565b6110a8816117c7565b50565b60055460405163bd0efaab60e01b81523360048201526000916001600160a01b03169063bd0efaab90602401602060405180830381865afa1580156110f4573d6000803e3d6000fd5b505050506040513d601f19601f820116820180604052508101906111189190612048565b61115c5760405162461bcd60e51b8152602060048201526015602482015274141c9bdd9a59195c881b9bdd08185c1c1c9bdd9959605a1b604482015260640161034f565b60048460405161116c919061206a565b9081526040519081900360200190205460ff16156111cc5760405162461bcd60e51b815260206004820152601b60248201527f4d65646963616c207265706f727420616c726561647920757365640000000000604482015260640161034f565b600554604051632b07fce360e01b8152600481018a90526000916001600160a01b031690632b07fce390602401600060405180830381865afa158015611216573d6000803e3d6000fd5b505050506040513d6000823e601f3d908101601f1916820160405261123e91908101906120f5565b805190915060000361128a5760405162461bcd60e51b8152602060048201526015602482015274141bdb1a58de48191bd95cc81b9bdd08195e1a5cdd605a1b604482015260640161034f565b60038160a0015160048111156112a2576112a2611ae3565b146112e35760405162461bcd60e51b8152602060048201526011602482015270506f6c696379206e6f742061637469766560781b604482015260640161034f565b876001600160a01b031681602001516001600160a01b0316146113535760405162461bcd60e51b815260206004820152602260248201527f50617469656e74206d75737420626520706f6c6963792062656e656669636961604482015261727960f01b606482015260840161034f565b600086118015611367575080604001518611155b6113ac5760405162461bcd60e51b8152602060048201526016602482015275436c61696d206578636565647320636f76657261676560501b604482015260640161034f565b8060c0015142101580156113c457508060e001514211155b6114105760405162461bcd60e51b815260206004820152601d60248201527f506f6c6963792065787069726564206f72206e6f742073746172746564000000604482015260640161034f565b60008551116114615760405162461bcd60e51b815260206004820152601760248201527f4d65646963616c207265706f7274207265717569726564000000000000000000604482015260640161034f565b60008451116114a95760405162461bcd60e51b815260206004820152601460248201527314185d1a595b9d08111251081c995c5d5a5c995960621b604482015260640161034f565b60008351116114f15760405162461bcd60e51b8152602060048201526014602482015273141c9bdd9a59195c881590c81c995c5d5a5c995960621b604482015260640161034f565b6001600160a01b0387166115475760405162461bcd60e51b815260206004820152601860248201527f50726f76696465722077616c6c65742072657175697265640000000000000000604482015260640161034f565b6001600486604051611559919061206a565b908152604051908190036020019020805491151560ff1990921691909117905560028054906000611589836121cc565b9190505550600060025490506040518061018001604052808281526020018b81526020018a6001600160a01b03168152602001336001600160a01b03168152602001896001600160a01b031681526020018881526020018781526020018681526020018581526020016000600481111561160557611605611ae3565b8152600060208083018290526040805180830182528381529381019390935284825260038082529183902084518155908401516001820155918301516002830180546001600160a01b03199081166001600160a01b0393841617909155606085015192840180548216938316939093179092556080840151600484018054909316911617905560a0820151600582015560c082015160068201906116a99082611f4c565b5060e082015160078201906116be9082611f4c565b5061010082015160088201906116d49082611f4c565b5061012082015160098201805460ff191660018360048111156116f9576116f9611ae3565b0217905550610140820151600a820155610160820151600b82019061171e9082611f4c565b50506040518881526001600160a01b038b169150339083907f496125846b0e8273879f707f2ee3c888aa2fb21ac034e43d07eaa904357e43779060200160405180910390a49998505050505050505050565b60026000540361179357604051633ee5aeb560e01b815260040160405180910390fd5b6002600055565b6001546001600160a01b03163314610be75760405163118cdaa760e01b815233600482015260240161034f565b600180546001600160a01b038381166001600160a01b0319831681179093556040519116919082907f8be0079c531659141344cd1fd0a4f28419497f9722a3daafe3b4186f6b6457e090600090a35050565b60008083600481111561182e5761182e611ae3565b0361186d5760015b82600481111561184857611848611ae3565b1480611866575060035b82600481111561186457611864611ae3565b145b90506118b1565b600183600481111561188157611881611ae3565b0361188d576002611836565b60028360048111156118a1576118a1611ae3565b036118ad576004611852565b5060005b92915050565b604051806101800160405280600081526020016000815260200160006001600160a01b0316815260200160006001600160a01b0316815260200160006001600160a01b03168152602001600081526020016060815260200160608152602001606081526020016000600481111561193057611930611ae3565b815260200160008152602001606081525090565b634e487b7160e01b600052604160045260246000fd5b604051610120810167ffffffffffffffff8111828210171561197e5761197e611944565b60405290565b604051601f8201601f1916810167ffffffffffffffff811182821017156119ad576119ad611944565b604052919050565b600067ffffffffffffffff8211156119cf576119cf611944565b50601f01601f191660200190565b600082601f8301126119ee57600080fd5b8135611a016119fc826119b5565b611984565b818152846020838601011115611a1657600080fd5b816020850160208301376000918101602001919091529392505050565b60008060408385031215611a4657600080fd5b82359150602083013567ffffffffffffffff811115611a6457600080fd5b611a70858286016119dd565b9150509250929050565b600060208284031215611a8c57600080fd5b5035919050565b60005b83811015611aae578181015183820152602001611a96565b50506000910152565b60008151808452611acf816020860160208601611a93565b601f01601f19169290920160200192915050565b634e487b7160e01b600052602160045260246000fd5b60058110611b1757634e487b7160e01b600052602160045260246000fd5b9052565b60208152815160208201526020820151604082015260006040830151611b4c60608401826001600160a01b03169052565b5060608301516001600160a01b03811660808401525060808301516001600160a01b03811660a08401525060a083015160c083015260c08301516101808060e0850152611b9d6101a0850183611ab7565b915060e0850151601f19610100818786030181880152611bbd8584611ab7565b945080880151925050610120818786030181880152611bdc8584611ab7565b945080880151925050610140611bf481880184611af9565b87015161016087810191909152870151868503909101838701529050611c1a8382611ab7565b9695505050505050565b60008060408385031215611c3757600080fd5b50508035926020909101359150565b600060208284031215611c5857600080fd5b813567ffffffffffffffff811115611c6f57600080fd5b611c7b848285016119dd565b949350505050565b6001600160a01b03811681146110a857600080fd5b600060208284031215611caa57600080fd5b8135611cb581611c83565b9392505050565b8c8152602081018c90526001600160a01b038b811660408301528a811660608301528916608082015260006101808960a08401528060c0840152611d028184018a611ab7565b905082810360e0840152611d168189611ab7565b9050828103610100840152611d2b8188611ab7565b9050611d3b610120840187611af9565b84610140840152828103610160840152611d558185611ab7565b9f9e505050505050505050505050505050565b600581106110a857600080fd5b60008060408385031215611d8857600080fd5b823591506020830135611d9a81611d68565b809150509250929050565b600080600080600080600060e0888a031215611dc057600080fd5b873596506020880135611dd281611c83565b95506040880135611de281611c83565b945060608801359350608088013567ffffffffffffffff80821115611e0657600080fd5b611e128b838c016119dd565b945060a08a0135915080821115611e2857600080fd5b611e348b838c016119dd565b935060c08a0135915080821115611e4a57600080fd5b50611e578a828b016119dd565b91505092959891949750929550565b60208082526015908201527413db9b1e481a5b9cdd5c995c8818d85b8818d85b1b605a1b604082015260600190565b60208082526014908201527310db185a5b48191bd95cc81b9bdd08195e1a5cdd60621b604082015260600190565b600181811c90821680611ed757607f821691505b602082108103611ef757634e487b7160e01b600052602260045260246000fd5b50919050565b601f821115611f4757600081815260208120601f850160051c81016020861015611f245750805b601f850160051c820191505b81811015611f4357828155600101611f30565b5050505b505050565b815167ffffffffffffffff811115611f6657611f66611944565b611f7a81611f748454611ec3565b84611efd565b602080601f831160018114611faf5760008415611f975750858301515b600019600386901b1c1916600185901b178555611f43565b600085815260208120601f198616915b82811015611fde57888601518255948401946001909101908401611fbf565b5085821015611ffc5787850151600019600388901b60f8161c191681555b5050505050600190811b01905550565b602081526000611cb56020830184611ab7565b602081016118b18284611af9565b6040810161203b8285611af9565b611cb56020830184611af9565b60006020828403121561205a57600080fd5b81518015158114611cb557600080fd5b6000825161207c818460208701611a93565b9190910192915050565b805161209181611c83565b919050565b80516003811061209157600080fd5b805161209181611d68565b600082601f8301126120c157600080fd5b81516120cf6119fc826119b5565b8181528460208386010111156120e457600080fd5b611c7b826020830160208701611a93565b60006020828403121561210757600080fd5b815167ffffffffffffffff8082111561211f57600080fd5b90830190610120828603121561213457600080fd5b61213c61195a565b8251815261214c60208401612086565b6020820152604083015160408201526060830151606082015261217160808401612096565b608082015261218260a084016120a5565b60a082015260c083015160c082015260e083015160e082015261010080840151838111156121af57600080fd5b6121bb888287016120b0565b918301919091525095945050505050565b6000600182016121ec57634e487b7160e01b600052601160045260246000fd5b506001019056fea2646970667358221220e3a931f33e9455afc61455df34361d184004b11fcb3aea881cfa9c0e3c20ce3864736f6c63430008140033",
  "linkReferences": {},
  "deployedLinkReferences": {}
}