{
  "_format": "hh-sol-artifact-1",
  "contractName": "IdentityRegistry",
  "sourceName": "contracts/IdentityRegistry.sol",
  "abi": [
    {
      "anonymous": false,
      "inputs": [
        {
          "indexed": true,
          "internalType": "address",
          "name": "addr",
          "type": "address"
        },
        {
          "indexed": false,
          "internalType": "string",
          "name": "did",
          "type": "string"
        }
      ],
      "name": "IdentityRegistered",
      "type": "event"
    },
    {
      "inputs": [
        {
          "internalType": "address",
          "name": "addr",
          "type": "address"
        }
      ],
      "name": "getIdentity",
      "outputs": [
        {
          "internalType": "string",
          "name": "",
          "type": "string"
        }
      ],
      "stateMutability": "view",
      "type": "function"
    },
    {
      "inputs": [
        {
          "internalType": "address",
          "name": "addr",
          "type": "address"
        }
      ],
      "name": "isRegistered",
      "outputs": [
        {
          "internalType": "bool",
          "name": "",
          "type": "bool"
        }
      ],
      "stateMutability": "view",
      "type": "function"
    },
    {
      "inputs": [
        {
          "internalType": "string",
          "name": "did",
          "type": "string"
        }
      ],
      "name": "registerIdentity",
      "outputs": [],
      "stateMutability": "nonpayable",
      "type": "function"
    }
  ],
  "bytecode": "0x608060405234801561001057600080fd5b506104ec806100206000396000f3fe608060405234801561001057600080fd5b50600436106100415760003560e01c80632fea7b811461004657806392849ca41461006f578063c3c5a54714610084575b600080fd5b610059610054366004610228565b6100c0565b6040516100669190610258565b60405180910390f35b61008261007d3660046102bc565b61016c565b005b6100b0610092366004610228565b6001600160a01b031660009081526001602052604090205460ff1690565b6040519015158152602001610066565b6001600160a01b03811660009081526020819052604090208054606091906100e79061036d565b80601f01602080910402602001604051908101604052809291908181526020018280546101139061036d565b80156101605780601f1061013557610100808354040283529160200191610160565b820191906000526020600020905b81548152906001019060200180831161014357829003601f168201915b50505050509050919050565b60008151116101b75760405162461bcd60e51b81526020600482015260136024820152724449442063616e6e6f7420626520656d70747960681b604482015260640160405180910390fd5b3360009081526020819052604090206101d082826103f6565b5033600081815260016020819052604091829020805460ff19169091179055517f9b6805eb7a1bee8a797c79c5f2a39a182f3d37f8b8cce5ec42371000c8115dfd9061021d908490610258565b60405180910390a250565b60006020828403121561023a57600080fd5b81356001600160a01b038116811461025157600080fd5b9392505050565b600060208083528351808285015260005b8181101561028557858101830151858201604001528201610269565b506000604082860101526040601f19601f8301168501019250505092915050565b634e487b7160e01b600052604160045260246000fd5b6000602082840312156102ce57600080fd5b813567ffffffffffffffff808211156102e657600080fd5b818401915084601f8301126102fa57600080fd5b81358181111561030c5761030c6102a6565b604051601f8201601f19908116603f01168101908382118183101715610334576103346102a6565b8160405282815287602084870101111561034d57600080fd5b826020860160208301376000928101602001929092525095945050505050565b600181811c9082168061038157607f821691505b6020821081036103a157634e487b7160e01b600052602260045260246000fd5b50919050565b601f8211156103f157600081815260208120601f850160051c810160208610156103ce5750805b601f850160051c820191505b818110156103ed578281556001016103da565b5050505b505050565b815167ffffffffffffffff811115610410576104106102a6565b6104248161041e845461036d565b846103a7565b602080601f83116001811461045957600084156104415750858301515b600019600386901b1c1916600185901b1785556103ed565b600085815260208120601f198616915b8281101561048857888601518255948401946001909101908401610469565b50858210156104a65787850151600019600388901b60f8161c191681555b5050505050600190811b0190555056fea26469706673582212209958eb2a27f16cbb2c5c470c1b7e354e96e87b71f3a0472727f647a290297a0764736f6c63430008140033",
  "linkReferences": {},
  "deployedLinkReferences": {}
}