{
  "_format": "hh-sol-artifact-1",
  "contractName": "PolicyContract",
  "sourceName": "contracts/PolicyContract.sol",
  "abi": [
    {
      "inputs": [
        {
          "internalType": "address",
          "name": "_identityRegistry",
          "type": "address"
        }
      ],
      "stateMutability": "nonpayable",
      "type": "constructor"
    },
    {
      "inputs": [
        {
          "internalType": "address",
          "name": "owner",
          "type": "address"
        }
      ],
      "name": "OwnableInvalidOwner",
      "type": "error"
    },
    {
      "inputs": [
        {
          "internalType": "address",
          "name": "account",
          "type": "address"
        }
      ],
      "name": "OwnableUnauthorizedAccount",
      "type": "error"
    },
    {
      "inputs": [],
      "name": "ReentrancyGuardReentrantCall",
      "type": "error"
    },
    {
      "anonymous": false,
      "inputs": [
        {
          "indexed": true,
          "internalType": "address",
          "name": "previousOwner",
          "type": "address"
        },
        {
          "indexed": true,
          "internalType": "address",
          "name": "newOwner",
          "type": "address"
        }
      ],
      "name": "OwnershipTransferred",
      "type": "event"
    },
    {
      "anonymous": false,
      "inputs": [
        {
          "indexed": true,
          "internalType": "uint256",
          "name": "policyId",
          "type": "uint256"
        }
      ],
      "name": "PolicyApproved",
      "type": "event"
    },
    {
      "anonymous": false,
      "inputs": [
        {
          "indexed": true,
          "internalType": "uint256",
          "name": "policyId",
          "type": "uint256"
        },
        {
          "indexed": true,
          "internalType": "address",
          "name": "beneficiary",
          "type": "address"
        },
        {
          "indexed": false,
          "internalType": "uint256",
          "name": "coverageAmount",
          "type": "uint256"
        },
        {
          "indexed": false,
          "internalType": "uint256",
          "name": "startEpoch",
          "type": "uint256"
        },
        {
          "indexed": false,
          "internalType": "uint256",
          "name": "endEpoch",
          "type": "uint256"
        }
      ],
      "name": "PolicyIssued",
      "type": "event"
    },
    {
      "anonymous": false,
      "inputs": [
        {
          "indexed": true,
          "internalType": "uint256",
          "name": "policyId",
          "type": "uint256"
        },
        {
          "indexed": false,
          "internalType": "string",
          "name": "reason",
          "type": "string"
        },
        {
          "indexed": false,
          "internalType": "uint256",
          "name": "refundAmount",
          "type": "uint256"
        }
      ],
      "name": "PolicyRejected",
      "type": "event"
    },
    {
      "anonymous": false,
      "inputs": [
        {
          "indexed": true,
          "internalType": "uint256",
          "name": "policyId",
          "type": "uint256"
        },
        {
          "indexed": true,
          "internalType": "address",
          "name": "beneficiary",
          "type": "address"
        },
        {
          "indexed": false,
          "internalType": "uint256",
          "name": "premium",
          "type": "uint256"
        },
        {
          "indexed": false,
          "internalType": "string",
          "name": "kycDocCid",
          "type": "string"
        }
      ],
      "name": "PolicyRequested",
      "type": "event"
    },
    {
      "anonymous": false,
      "inputs": [
        {
          "indexed": true,
          "internalType": "uint256",
          "name": "policyId",
          "type": "uint256"
        }
      ],
      "name": "PolicyRevoked",
      "type": "event"
    },
    {
      "anonymous": false,
      "inputs": [
        {
          "indexed": true,
          "internalType": "address",
          "name": "provider",
          "type": "address"
        }
      ],
      "name": "ProviderApproved",
      "type": "event"
    },
    {
      "anonymous": false,
      "inputs": [
        {
          "indexed": true,
          "internalType": "address",
          "name": "provider",
          "type": "address"
        },
        {
          "indexed": false,
          "internalType": "string",
          "name": "did",
          "type": "string"
        },
        {
          "indexed": false,
          "internalType": "string",
          "name": "licenseCid",
          "type": "string"
        }
      ],
      "name": "ProviderRegistered",
      "type": "event"
    },
    {
      "anonymous": false,
      "inputs": [
        {
          "indexed": true,
          "internalType": "address",
          "name": "provider",
          "type": "address"
        },
        {
          "indexed": false,
          "internalType": "string",
          "name": "reason",
          "type": "string"
        }
      ],
      "name": "ProviderRejected",
      "type": "event"
    },
    {
      "inputs": [],
      "name": "BASIC_PREMIUM_RATE",
      "outputs": [
        {
          "internalType": "uint256",
          "name": "",
          "type": "uint256"
        }
      ],
      "stateMutability": "view",
      "type": "function"
    },
    {
      "inputs": [],
      "name": "PREMIUM_PREMIUM_RATE",
      "outputs": [
        {
          "internalType": "uint256",
          "name": "",
          "type": "uint256"
        }
      ],
      "stateMutability": "view",
      "type": "function"
    },
    {
      "inputs": [],
      "name": "STANDARD_PREMIUM_RATE",
      "outputs": [
        {
          "internalType": "uint256",
          "name": "",
          "type": "uint256"
        }
      ],
      "stateMutability": "view",
      "type": "function"
    },
    {
      "inputs": [
        {
          "internalType": "uint256",
          "name": "policyId",
          "type": "uint256"
        }
      ],
      "name": "approvePolicy",
      "outputs": [],
      "stateMutability": "nonpayable",
      "type": "function"
    },
    {
      "inputs": [
        {
          "internalType": "address",
          "name": "provider",
          "type": "address"
        }
      ],
      "name": "approveProvider",
      "outputs": [],
      "stateMutability": "nonpayable",
      "type": "function"
    },
    {
      "inputs": [
        {
          "internalType": "uint256",
          "name": "coverageAmount",
          "type": "uint256"
        },
        {
          "internalType": "enum PolicyContract.PolicyTier",
          "name": "tier",
          "type": "uint8"
        }
      ],
      "name": "calculatePremium",
      "outputs": [
        {
          "internalType": "uint256",
          "name": "",
          "type": "uint256"
        }
      ],
      "stateMutability": "pure",
      "type": "function"
    },
    {
      "inputs": [],
      "name": "claimContractAddress",
      "outputs": [
        {
          "internalType": "address",
          "name": "",
          "type": "address"
        }
      ],
      "stateMutability": "view",
      "type": "function"
    },
    {
      "inputs": [
        {
          "internalType": "uint256",
          "name": "policyId",
          "type": "uint256"
        }
      ],
      "name": "getPolicy",
      "outputs": [
        {
          "components": [
            {
              "internalType": "uint256",
              "name": "id",
              "type": "uint256"
            },
            {
              "internalType": "address",
              "name": "beneficiary",
              "type": "address"
            },
            {
              "internalType": "uint256",
              "name": "coverageAmount",
              "type": "uint256"
            },
            {
              "internalType": "uint256",
              "name": "premiumPaid",
              "type": "uint256"
            },
            {
              "internalType": "enum PolicyContract.PolicyTier",
              "name": "tier",
              "type": "uint8"
            },
            {
              "internalType": "enum PolicyContract.PolicyStatus",
              "name": "status",
              "type": "uint8"
            },
            {
              "internalType": "uint256",
              "name": "startEpoch",
              "type": "uint256"
            },
            {
              "internalType": "uint256",
              "name": "endEpoch",
              "type": "uint256"
            },
            {
              "internalType": "string",
              "name": "kycDocCid",
              "type": "string"
            }
          ],
          "internalType": "struct PolicyContract.Policy",
          "name": "",
          "type": "tuple"
        }
      ],
      "stateMutability": "view",
      "type": "function"
    },
    {
      "inputs": [],
      "name": "getPolicyCount",
      "outputs": [
        {
          "internalType": "uint256",
          "name": "",
          "type": "uint256"
        }
      ],
      "stateMutability": "view",
      "type": "function"
    },
    {
      "inputs": [
        {
          "internalType": "address",
          "name": "provider",
          "type": "address"
        }
      ],
      "name": "getProvider",
      "outputs": [
        {
          "components": [
            {
              "internalType": "address",
              "name": "providerAddress",
              "type": "address"
            },
            {
              "internalType": "string",
              "name": "did",
              "type": "string"
            },
            {
              "internalType": "string",
              "name": "licenseCid",
              "type": "string"
            },
            {
              "internalType": "enum PolicyContract.ProviderStatus",
              "name": "status",
              "type": "uint8"
            },
            {
              "internalType": "uint256",
              "name": "registeredAt",
              "type": "uint256"
            }
          ],
          "internalType": "struct PolicyContract.Provider",
          "name": "",
          "type": "tuple"
        }
      ],
      "stateMutability": "view",
      "type": "function"
    },
    {
      "inputs": [],
      "name": "identityRegistry",
      "outputs": [
        {
          "internalType": "contract IdentityRegistry",
          "name": "",
          "type": "address"
        }
      ],
      "stateMutability": "view",
      "type": "function"
    },
    {
      "inputs": [],
      "name": "insurerAddress",
      "outputs": [
        {
          "internalType": "address",
          "name": "",
          "type": "address"
        }
      ],
      "stateMutability": "view",
      "type": "function"
    },
    {
      "inputs": [
        {
          "internalType": "uint256",
          "name": "policyId",
          "type": "uint256"
        }
      ],
      "name": "isPolicyValid",
      "outputs": [
        {
          "internalType": "bool",
          "name": "",
          "type": "bool"
        }
      ],
      "stateMutability": "view",
      "type": "function"
    },
    {
      "inputs": [
        {
          "internalType": "address",
          "name": "provider",
          "type": "address"
        }
      ],
      "name": "isProviderApproved",
      "outputs": [
        {
          "internalType": "bool",
          "name": "",
          "type": "bool"
        }
      ],
      "stateMutability": "view",
      "type": "function"
    },
    {
      "inputs": [
        {
          "internalType": "address",
          "name": "beneficiary",
          "type": "address"
        },
        {
          "internalType": "uint256",
          "name": "coverageAmount",
          "type": "uint256"
        },
        {
          "internalType": "uint256",
          "name": "startEpoch",
          "type": "uint256"
        },
        {
          "internalType": "uint256",
          "name": "endEpoch",
          "type": "uint256"
        }
      ],
      "name": "issuePolicy",
      "outputs": [
        {
          "internalType": "uint256",
          "name": "",
          "type": "uint256"
        }
      ],
      "stateMutability": "nonpayable",
      "type": "function"
    },
    {
      "inputs": [],
      "name": "owner",
      "outputs": [
        {
          "internalType": "address",
          "name": "",
          "type": "address"
        }
      ],
      "stateMutability": "view",
      "type": "function"
    },
    {
      "inputs": [
        {
          "internalType": "uint256",
          "name": "",
          "type": "uint256"
        }
      ],
      "name": "policies",
      "outputs": [
        {
          "internalType": "uint256",
          "name": "id",
          "type": "uint256"
        },
        {
          "internalType": "address",
          "name": "beneficiary",
          "type": "address"
        },
        {
          "internalType": "uint256",
          "name": "coverageAmount",
          "type": "uint256"
        },
        {
          "internalType": "uint256",
          "name": "premiumPaid",
          "type": "uint256"
        },
        {
          "internalType": "enum PolicyContract.PolicyTier",
          "name": "tier",
          "type": "uint8"
        },
        {
          "internalType": "enum PolicyContract.PolicyStatus",
          "name": "status",
          "type": "uint8"
        },
        {
          "internalType": "uint256",
          "name": "startEpoch",
          "type": "uint256"
        },
        {
          "internalType": "uint256",
          "name": "endEpoch",
          "type": "uint256"
        },
        {
          "internalType": "string",
          "name": "kycDocCid",
          "type": "string"
        }
      ],
      "stateMutability": "view",
      "type": "function"
    },
    {
      "inputs": [
        {
          "internalType": "uint256",
          "name": "",
          "type": "uint256"
        }
      ],
      "name": "policyPremiumEscrow",
      "outputs": [
        {
          "internalType": "uint256",
          "name": "",
          "type": "uint256"
        }
      ],
      "stateMutability": "view",
      "type": "function"
    },
    {
      "inputs": [
        {
          "internalType": "address",
          "name": "",
          "type": "address"
        }
      ],
      "name": "providerApprovalStatus",
      "outputs": [
        {
          "internalType": "enum PolicyContract.ProviderStatus",
          "name": "",
          "type": "uint8"
        }
      ],
      "stateMutability": "view",
      "type": "function"
    },
    {
      "inputs": [
        {
          "internalType": "address",
          "name": "",
          "type": "address"
        }
      ],
      "name": "providers",
      "outputs": [
        {
          "internalType": "address",
          "name": "providerAddress",
          "type": "address"
        },
        {
          "internalType": "string",
          "name": "did",
          "type": "string"
        },
        {
          "internalType": "string",
          "name": "licenseCid",
          "type": "string"
        },
        {
          "internalType": "enum PolicyContract.ProviderStatus",
          "name": "status",
          "type": "uint8"
        },
        {
          "internalType": "uint256",
          "name": "registeredAt",
          "type": "uint256"
        }
      ],
      "stateMutability": "view",
      "type": "function"
    },
    {
      "inputs": [
        {
          "internalType": "uint256",
          "name": "policyId",
          "type": "uint256"
        },
        {
          "internalType": "string",
          "name": "reason",
          "type": "string"
        }
      ],
      "name": "rejectPolicy",
      "outputs": [],
      "stateMutability": "nonpayable",
      "type": "function"
    },
    {
      "inputs": [
        {
          "internalType": "address",
          "name": "provider",
          "type": "address"
        },
        {
          "internalType": "string",
          "name": "reason",
          "type": "string"
        }
      ],
      "name": "rejectProvider",
      "outputs": [],
      "stateMutability": "nonpayable",
      "type": "function"
    },
    {
      "inputs": [],
      "name": "renounceOwnership",
      "outputs": [],
      "stateMutability": "nonpayable",
      "type": "function"
    },
    {
      "inputs": [
        {
          "internalType": "address",
          "name": "beneficiary",
          "type": "address"
        },
        {
          "internalType": "uint256",
          "name": "coverageAmount",
          "type": "uint256"
        },
        {
          "internalType": "enum PolicyContract.PolicyTier",
          "name": "tier",
          "type": "uint8"
        },
        {
          "internalType": "uint256",
          "name": "startEpoch",
          "type": "uint256"
        },
        {
          "internalType": "uint256",
          "name": "endEpoch",
          "type": "uint256"
        },
        {
          "internalType": "string",
          "name": "kycDocCid",
          "type": "string"
        }
      ],
      "name": "requestPolicy",
      "outputs": [
        {
          "internalType": "uint256",
          "name": "",
          "type": "uint256"
        }
      ],
      "stateMutability": "payable",
      "type": "function"
    },
    {
      "inputs": [
        {
          "internalType": "string",
          "name": "did",
          "type": "string"
        },
        {
          "internalType": "string",
          "name": "licenseCid",
          "type": "string"
        }
      ],
      "name": "requestProviderApproval",
      "outputs": [],
      "stateMutability": "nonpayable",
      "type": "function"
    },
    {
      "inputs": [
        {
          "internalType": "uint256",
          "name": "policyId",
          "type": "uint256"
        }
      ],
      "name": "revokePolicy",
      "outputs": [],
      "stateMutability": "nonpayable",
      "type": "function"
    },
    {
      "inputs": [
        {
          "internalType": "address",
          "name": "_claimContract",
          "type": "address"
        }
      ],
      "name": "setClaimContract",
      "outputs": [],
      "stateMutability": "nonpayable",
      "type": "function"
    },
    {
      "inputs": [
        {
          "internalType": "address",
          "name": "_insurer",
          "type": "address"
        }
      ],
      "name": "setInsurerAddress",
      "outputs": [],
      "stateMutability": "nonpayable",
      "type": "function"
    },
    {
      "inputs": [
        {
          "internalType": "address",
          "name": "newOwner",
          "type": "address"
        }
      ],
      "name": "transferOwnership",
      "outputs": [],
      "stateMutability": "nonpayable",
      "type": "function"
    }
  ],
  "bytecode": "0x60806040523480156200001157600080fd5b50604051620028c0380380620028c083398101604081905262000034916200014b565b600160005533806200006157604051631e4fbdf760e01b8152600060048201526024015b60405180910390fd5b6200006c81620000f9565b506001600160a01b038116620000c55760405162461bcd60e51b815260206004820152601860248201527f496e76616c696420726567697374727920616464726573730000000000000000604482015260640162000058565b600780546001600160a01b039092166001600160a01b0319928316179055600980549091163317905560006002556200017d565b600180546001600160a01b038381166001600160a01b0319831681179093556040519116919082907f8be0079c531659141344cd1fd0a4f28419497f9722a3daafe3b4186f6b6457e090600090a35050565b6000602082840312156200015e57600080fd5b81516001600160a01b03811681146200017657600080fd5b9392505050565b612733806200018d6000396000f3fe6080604052600436106101c25760003560e01c80638da5cb5b116100f7578063bd0efaab11610095578063e2810bf111610064578063e2810bf114610558578063e4bc9f3014610578578063e59771d214610598578063f2fde38b146105ad57600080fd5b8063bd0efaab146104ce578063d3e89483146104ee578063d6f9898514610523578063e0476b551461053857600080fd5b8063a0b08cfa116100d1578063a0b08cfa1461043b578063a7c0900e1461045b578063ac6424a21461047b578063ac740e70146104b857600080fd5b80638da5cb5b146103d0578063955073a2146103ee578063a0535a451461041b57600080fd5b80634774421e1161016457806362dd5fec1161013e57806362dd5fec1461034b57806367482caa1461036b578063715018a61461039b5780637a28399b146103b057600080fd5b80634774421e146102de5780634a30d3eb146102fe57806355f21eb71461031e57600080fd5b80632b07fce3116101a05780632b07fce31461025a57806336eb9f02146102875780633d1a888f146102a95780634321b9be146102be57600080fd5b80630787bc27146101c7578063134e18f4146102015780632a9404c314610239575b600080fd5b3480156101d357600080fd5b506101e76101e2366004611f1c565b6105cd565b6040516101f8959493929190611fa3565b60405180910390f35b34801561020d57600080fd5b50600754610221906001600160a01b031681565b6040516001600160a01b0390911681526020016101f8565b61024c6102473660046120aa565b61071a565b6040519081526020016101f8565b34801561026657600080fd5b5061027a610275366004612124565b610a54565b6040516101f8919061215a565b34801561029357600080fd5b506102a76102a23660046121ef565b610bed565b005b3480156102b557600080fd5b5061024c606481565b3480156102ca57600080fd5b50600854610221906001600160a01b031681565b3480156102ea57600080fd5b5061024c6102f9366004612253565b610d7b565b34801561030a57600080fd5b506102a7610319366004611f1c565b610de5565b34801561032a57600080fd5b5061033e610339366004611f1c565b610ebe565b6040516101f8919061227f565b34801561035757600080fd5b506102a7610366366004612124565b611061565b34801561037757600080fd5b5061038b610386366004612124565b611203565b60405190151581526020016101f8565b3480156103a757600080fd5b506102a76113b5565b3480156103bc57600080fd5b506102a76103cb366004611f1c565b6113c9565b3480156103dc57600080fd5b506001546001600160a01b0316610221565b3480156103fa57600080fd5b5061024c610409366004612124565b60046020526000908152604090205481565b34801561042757600080fd5b506102a7610436366004611f1c565b611529565b34801561044757600080fd5b5061024c6104563660046122f6565b6115a9565b34801561046757600080fd5b50600954610221906001600160a01b031681565b34801561048757600080fd5b506104ab610496366004611f1c565b60066020526000908152604090205460ff1681565b6040516101f8919061232f565b3480156104c457600080fd5b5061024c61012c81565b3480156104da57600080fd5b5061038b6104e9366004611f1c565b611822565b3480156104fa57600080fd5b5061050e610509366004612124565b61185a565b6040516101f899989796959493929190612342565b34801561052f57600080fd5b5061024c60c881565b34801561054457600080fd5b506102a7610553366004612124565b61193f565b34801561056457600080fd5b506102a76105733660046123b2565b611a23565b34801561058457600080fd5b506102a76105933660046123ef565b611c02565b3480156105a457600080fd5b5060025461024c565b3480156105b957600080fd5b506102a76105c8366004611f1c565b611d6a565b600560205260009081526040902080546001820180546001600160a01b0390921692916105f990612427565b80601f016020809104026020016040519081016040528092919081815260200182805461062590612427565b80156106725780601f1061064757610100808354040283529160200191610672565b820191906000526020600020905b81548152906001019060200180831161065557829003601f168201915b50505050509080600201805461068790612427565b80601f01602080910402602001604051908101604052809291908181526020018280546106b390612427565b80156107005780601f106106d557610100808354040283529160200191610700565b820191906000526020600020905b8154815290600101906020018083116106e357829003601f168201915b505050506003830154600490930154919260ff1691905085565b60006001600160a01b0387166107775760405162461bcd60e51b815260206004820152601b60248201527f496e76616c69642062656e65666963696172792061646472657373000000000060448201526064015b60405180910390fd5b600086116107c75760405162461bcd60e51b815260206004820181905260248201527f436f76657261676520616d6f756e74206d75737420626520706f736974697665604482015260640161076e565b8383116107e65760405162461bcd60e51b815260040161076e90612461565b600082511161082f5760405162461bcd60e51b815260206004820152601560248201527412d650c8191bd8dd5b595b9d081c995c5d5a5c9959605a1b604482015260640161076e565b600061083b8787610d7b565b905080341461088c5760405162461bcd60e51b815260206004820152601860248201527f496e636f7272656374207072656d69756d20616d6f756e740000000000000000604482015260640161076e565b6002805490600061089c836124ba565b9190505550600060025490503460046000838152602001908152602001600020819055506040518061012001604052808281526020018a6001600160a01b031681526020018981526020013481526020018860028111156108ff576108ff611f7d565b81526020016000815260200187815260200186815260200185815250600360008381526020019081526020016000206000820151816000015560208201518160010160006101000a8154816001600160a01b0302191690836001600160a01b03160217905550604082015181600201556060820151816003015560808201518160040160006101000a81548160ff021916908360028111156109a3576109a3611f7d565b021790555060a08201518160040160016101000a81548160ff021916908360048111156109d2576109d2611f7d565b021790555060c0820151600582015560e082015160068201556101008201516007820190610a009082612522565b50905050886001600160a01b0316817f1ca774a6c4986bb171c581f58934d9037f7350af65980f95a79da94890c6595f3487604051610a409291906125e2565b60405180910390a398975050505050505050565b610a5c611e51565b6000828152600360205260408120549003610a895760405162461bcd60e51b815260040161076e90612603565b6000828152600360208181526040928390208351610120810185528154815260018201546001600160a01b0316928101929092526002808201549483019490945291820154606082015260048201549092608084019160ff1690811115610af257610af2611f7d565b6002811115610b0357610b03611f7d565b81526020016004820160019054906101000a900460ff166004811115610b2b57610b2b611f7d565b6004811115610b3c57610b3c611f7d565b81526020016005820154815260200160068201548152602001600782018054610b6490612427565b80601f0160208091040260200160405190810160405280929190818152602001828054610b9090612427565b8015610bdd5780601f10610bb257610100808354040283529160200191610bdd565b820191906000526020600020905b815481529060010190602001808311610bc057829003601f168201915b5050505050815250509050919050565b6000825111610c2d5760405162461bcd60e51b815260206004820152600c60248201526b111251081c995c5d5a5c995960a21b604482015260640161076e565b6000815111610c755760405162461bcd60e51b8152602060048201526014602482015273131a58d95b9cd94810d251081c995c5d5a5c995960621b604482015260640161076e565b6040805160a081018252338152602081018490529081018290526060810160008152426020918201523360009081526005825260409020825181546001600160a01b0319166001600160a01b03909116178155908201516001820190610cdb9082612522565b5060408201516002820190610cf09082612522565b50606082015160038201805460ff19166001836002811115610d1457610d14611f7d565b0217905550608091909101516004909101553360008181526006602052604090819020805460ff19169055517f6b1aa1e318762b7b04f60cd1d318222049b2c70c1c7daad0af5276d5f3b2525a90610d6f9085908590612632565b60405180910390a25050565b60008080836002811115610d9157610d91611f7d565b03610d9e57506064610dc4565b6001836002811115610db257610db2611f7d565b03610dbf575060c8610dc4565b5061012c5b612710610dd18286612660565b610ddb9190612677565b9150505b92915050565b610ded611da8565b6008546001600160a01b031615610e465760405162461bcd60e51b815260206004820152601a60248201527f436c61696d20636f6e747261637420616c726561647920736574000000000000604482015260640161076e565b6001600160a01b038116610e9c5760405162461bcd60e51b815260206004820152601e60248201527f496e76616c696420636c61696d20636f6e747261637420616464726573730000604482015260640161076e565b600880546001600160a01b0319166001600160a01b0392909216919091179055565b610ec6611eb7565b6001600160a01b03808316600090815260056020908152604091829020825160a081019093528054909316825260018301805492939291840191610f0990612427565b80601f0160208091040260200160405190810160405280929190818152602001828054610f3590612427565b8015610f825780601f10610f5757610100808354040283529160200191610f82565b820191906000526020600020905b815481529060010190602001808311610f6557829003601f168201915b50505050508152602001600282018054610f9b90612427565b80601f0160208091040260200160405190810160405280929190818152602001828054610fc790612427565b80156110145780601f10610fe957610100808354040283529160200191611014565b820191906000526020600020905b815481529060010190602001808311610ff757829003601f168201915b5050509183525050600382015460209091019060ff16600281111561103b5761103b611f7d565b600281111561104c5761104c611f7d565b81526020016004820154815250509050919050565b6009546001600160a01b0316331461108b5760405162461bcd60e51b815260040161076e90612699565b60008181526003602052604081205490036110b85760405162461bcd60e51b815260040161076e90612603565b600080828152600360205260409020600490810154610100900460ff16908111156110e5576110e5611f7d565b146111275760405162461bcd60e51b8152602060048201526012602482015271506f6c696379206e6f742070656e64696e6760701b604482015260640161076e565b60008181526004602081815260408084208054908590556003928390529320909101805461ff00191661010083021790555060405182907f6fe99ad3a609f3d0a6942a00689c9a4357619ff730f68e4498c42f4c71d7aed390600090a26000828152600360205260409081902060018101546002820154600583015460069093015493516001600160a01b039092169386937fd93ca75dcb6254718485f83c72225dcd37a74fd9a134ceed01946cf2e920b83d936111f79392909283526020830191909152604082015260600190565b60405180910390a35050565b60008181526003602081815260408084208151610120810183528154815260018201546001600160a01b031693810193909352600280820154928401929092529283015460608301526004830154849391608084019160ff169081111561126c5761126c611f7d565b600281111561127d5761127d611f7d565b81526020016004820160019054906101000a900460ff1660048111156112a5576112a5611f7d565b60048111156112b6576112b6611f7d565b815260200160058201548152602001600682015481526020016007820180546112de90612427565b80601f016020809104026020016040519081016040528092919081815260200182805461130a90612427565b80156113575780601f1061132c57610100808354040283529160200191611357565b820191906000526020600020905b81548152906001019060200180831161133a57829003601f168201915b5050509190925250508151919250501580611388575060038160a00151600481111561138557611385611f7d565b14155b156113965750600092915050565b8060c0015142101580156113ae57508060e001514211155b9392505050565b6113bd611da8565b6113c76000611dd5565b565b6009546001600160a01b031633146113f35760405162461bcd60e51b815260040161076e90612699565b6001600160a01b038181166000908152600560205260409020541661144f5760405162461bcd60e51b8152602060048201526012602482015271141c9bdd9a59195c881b9bdd08199bdd5b9960721b604482015260640161076e565b6001600160a01b03811660009081526005602052604081206003015460ff16600281111561147f5761147f611f7d565b146114c35760405162461bcd60e51b815260206004820152601460248201527350726f7669646572206e6f742070656e64696e6760601b604482015260640161076e565b6001600160a01b03811660008181526005602090815260408083206003018054600160ff1991821681179092556006909352818420805490931617909155517fee9f2f9f53f8a2451cc2e764d1e1f4690a053a9030f64411d67993d66b5231e79190a250565b611531611da8565b6001600160a01b0381166115875760405162461bcd60e51b815260206004820152601760248201527f496e76616c696420696e73757265722061646472657373000000000000000000604482015260640161076e565b600980546001600160a01b0319166001600160a01b0392909216919091179055565b60006001600160a01b0385166116015760405162461bcd60e51b815260206004820152601b60248201527f496e76616c69642062656e656669636961727920616464726573730000000000604482015260640161076e565b600084116116515760405162461bcd60e51b815260206004820181905260248201527f436f76657261676520616d6f756e74206d75737420626520706f736974697665604482015260640161076e565b8282116116705760405162461bcd60e51b815260040161076e90612461565b60028054906000611680836124ba565b909155505060025460408051610120810182528281526001600160a01b03881660208201529081018690526000606082015260808101600181526020016003815260200185815260200184815260200160405180602001604052806000815250815250600360008381526020019081526020016000206000820151816000015560208201518160010160006101000a8154816001600160a01b0302191690836001600160a01b03160217905550604082015181600201556060820151816003015560808201518160040160006101000a81548160ff0219169083600281111561176b5761176b611f7d565b021790555060a08201518160040160016101000a81548160ff0219169083600481111561179a5761179a611f7d565b021790555060c0820151600582015560e0820151600682015561010082015160078201906117c89082612522565b505060408051878152602081018790529081018590526001600160a01b038816915082907fd93ca75dcb6254718485f83c72225dcd37a74fd9a134ceed01946cf2e920b83d9060600160405180910390a395945050505050565b600060016001600160a01b03831660009081526006602052604090205460ff16600281111561185357611853611f7d565b1492915050565b60036020819052600091825260409091208054600182015460028301549383015460048401546005850154600686015460078701805496986001600160a01b03909616979596949560ff8086169661010090960416949091906118bc90612427565b80601f01602080910402602001604051908101604052809291908181526020018280546118e890612427565b80156119355780601f1061190a57610100808354040283529160200191611935565b820191906000526020600020905b81548152906001019060200180831161191857829003601f168201915b5050505050905089565b600081815260036020526040812054900361196c5760405162461bcd60e51b815260040161076e90612603565b60036000828152600360205260409020600490810154610100900460ff169081111561199a5761199a611f7d565b146119db5760405162461bcd60e51b8152602060048201526011602482015270506f6c696379206e6f742061637469766560781b604482015260640161076e565b600081815260036020526040808220600401805461ff0019166104001790555182917f817025da04b6028ccedb2541a528220c91b135e288b21254caca7862f951664c91a250565b6009546001600160a01b03163314611a4d5760405162461bcd60e51b815260040161076e90612699565b611a55611e27565b6000828152600360205260408120549003611a825760405162461bcd60e51b815260040161076e90612603565b600080838152600360205260409020600490810154610100900460ff1690811115611aaf57611aaf611f7d565b14611af15760405162461bcd60e51b8152602060048201526012602482015271506f6c696379206e6f742070656e64696e6760701b604482015260640161076e565b600082815260046020818152604080842080546003909352818520600181015491869055909301805461ff0019166102001790555190926001600160a01b039092169190829084908381818185875af1925050503d8060008114611b71576040519150601f19603f3d011682016040523d82523d6000602084013e611b76565b606091505b5050905080611bb75760405162461bcd60e51b815260206004820152600d60248201526c1499599d5b990819985a5b1959609a1b604482015260640161076e565b847fa7896ca4d5c61de0b810b0fd7caa69f1bbe59ee1ccf2f3f170a2c8f282b0227f8585604051611be99291906126c8565b60405180910390a2505050611bfe6001600055565b5050565b6009546001600160a01b03163314611c2c5760405162461bcd60e51b815260040161076e90612699565b6001600160a01b0382811660009081526005602052604090205416611c885760405162461bcd60e51b8152602060048201526012602482015271141c9bdd9a59195c881b9bdd08199bdd5b9960721b604482015260640161076e565b6001600160a01b03821660009081526005602052604081206003015460ff166002811115611cb857611cb8611f7d565b14611cfc5760405162461bcd60e51b815260206004820152601460248201527350726f7669646572206e6f742070656e64696e6760601b604482015260640161076e565b6001600160a01b03821660008181526005602090815260408083206003018054600260ff19918216811790925560069093529281902080549092169092179055517f8a70e90393d045420713b74809679862c5f40a788e0ea8c6089b26064b195bf190610d6f9084906126ea565b611d72611da8565b6001600160a01b038116611d9c57604051631e4fbdf760e01b81526000600482015260240161076e565b611da581611dd5565b50565b6001546001600160a01b031633146113c75760405163118cdaa760e01b815233600482015260240161076e565b600180546001600160a01b038381166001600160a01b0319831681179093556040519116919082907f8be0079c531659141344cd1fd0a4f28419497f9722a3daafe3b4186f6b6457e090600090a35050565b600260005403611e4a57604051633ee5aeb560e01b815260040160405180910390fd5b6002600055565b6040518061012001604052806000815260200160006001600160a01b03168152602001600081526020016000815260200160006002811115611e9557611e95611f7d565b8152602001600081526020016000815260200160008152602001606081525090565b6040518060a0016040528060006001600160a01b03168152602001606081526020016060815260200160006002811115611ef357611ef3611f7d565b8152602001600081525090565b80356001600160a01b0381168114611f1757600080fd5b919050565b600060208284031215611f2e57600080fd5b6113ae82611f00565b6000815180845260005b81811015611f5d57602081850181015186830182015201611f41565b506000602082860101526020601f19601f83011685010191505092915050565b634e487b7160e01b600052602160045260246000fd5b60038110611da557611da5611f7d565b6001600160a01b038616815260a060208201819052600090611fc790830187611f37565b8281036040840152611fd98187611f37565b915050611fe584611f93565b6060820193909352608001529392505050565b803560038110611f1757600080fd5b634e487b7160e01b600052604160045260246000fd5b600082601f83011261202e57600080fd5b813567ffffffffffffffff8082111561204957612049612007565b604051601f8301601f19908116603f0116810190828211818310171561207157612071612007565b8160405283815286602085880101111561208a57600080fd5b836020870160208301376000602085830101528094505050505092915050565b60008060008060008060c087890312156120c357600080fd5b6120cc87611f00565b9550602087013594506120e160408801611ff8565b9350606087013592506080870135915060a087013567ffffffffffffffff81111561210b57600080fd5b61211789828a0161201d565b9150509295509295509295565b60006020828403121561213657600080fd5b5035919050565b61214681611f93565b9052565b6005811061214657612146611f7d565b60208152815160208201526000602083015161218160408401826001600160a01b03169052565b50604083015160608301526060830151608083015260808301516121a860a084018261213d565b5060a08301516121bb60c084018261214a565b5060c083015160e0838101919091528301516101008084019190915283015161012080840152610ddb610140840182611f37565b6000806040838503121561220257600080fd5b823567ffffffffffffffff8082111561221a57600080fd5b6122268683870161201d565b9350602085013591508082111561223c57600080fd5b506122498582860161201d565b9150509250929050565b6000806040838503121561226657600080fd5b8235915061227660208401611ff8565b90509250929050565b602080825282516001600160a01b03168282015282015160a060408301526000906122ad60c0840182611f37565b90506040840151601f198483030160608501526122ca8282611f37565b91505060608401516122db81611f93565b80608085015250608084015160a08401528091505092915050565b6000806000806080858703121561230c57600080fd5b61231585611f00565b966020860135965060408601359560600135945092505050565b6020810161233c83611f93565b91905290565b8981526001600160a01b03891660208201526040810188905260608101879052600061012061237088611f93565b87608084015261238360a084018861214a565b8560c08401528460e0840152806101008401526123a281840185611f37565b9c9b505050505050505050505050565b600080604083850312156123c557600080fd5b82359150602083013567ffffffffffffffff8111156123e357600080fd5b6122498582860161201d565b6000806040838503121561240257600080fd5b61240b83611f00565b9150602083013567ffffffffffffffff8111156123e357600080fd5b600181811c9082168061243b57607f821691505b60208210810361245b57634e487b7160e01b600052602260045260246000fd5b50919050565b60208082526023908201527f456e642065706f6368206d7573742062652061667465722073746172742065706040820152620dec6d60eb1b606082015260800190565b634e487b7160e01b600052601160045260246000fd5b6000600182016124cc576124cc6124a4565b5060010190565b601f82111561251d57600081815260208120601f850160051c810160208610156124fa5750805b601f850160051c820191505b8181101561251957828155600101612506565b5050505b505050565b815167ffffffffffffffff81111561253c5761253c612007565b6125508161254a8454612427565b846124d3565b602080601f831160018114612585576000841561256d5750858301515b600019600386901b1c1916600185901b178555612519565b600085815260208120601f198616915b828110156125b457888601518255948401946001909101908401612595565b50858210156125d25787850151600019600388901b60f8161c191681555b5050505050600190811b01905550565b8281526040602082015260006125fb6040830184611f37565b949350505050565b602080825260159082015274141bdb1a58de48191bd95cc81b9bdd08195e1a5cdd605a1b604082015260600190565b6040815260006126456040830185611f37565b82810360208401526126578185611f37565b95945050505050565b8082028115828204841417610ddf57610ddf6124a4565b60008261269457634e487b7160e01b600052601260045260246000fd5b500490565b60208082526015908201527413db9b1e481a5b9cdd5c995c8818d85b8818d85b1b605a1b604082015260600190565b6040815260006126db6040830185611f37565b90508260208301529392505050565b6020815260006113ae6020830184611f3756fea2646970667358221220c0f7f14d9395811990418061de4753459f361701d78518cbd890c4cd7db8b80064736f6c63430008140033",
  "linkReferences": {},
  "deployedLinkReferences": {}
}